:0400000002002132A7
:03000B00020143AC
:0100130032BA
:03001B000201845B
:0F007A007529FF752AFF752BFF754D0A02001EB1
:03001E000202805B
:10008900AF828FF005F07401800225E0D5F0FB42C4
:100099009D75BD0075BC8022AF8274E84FF5BC0028
:1000A900E5BC30E4FB53BCEFAEBDE4CE25E0CE3376
:1000B900CE25E0CE33FF740355BE7C004EF582ECAD
:1000C9004FF58322AF8275F00AEF842521FFEFB542
:1000D90021FC22782EE6C4540375F00AA4FF782E79
:1000E900E6540F2FF53B782DE6C4540775F00AA4A2
:1000F900FF782DE6540F2FF53C782CE6C45407758C
:10010900F00AA4FF782CE6540F2FF53D22AF82ACFC
:1001190011AD12AE1375F00AEF84FB8C828D838EBC
:10012900F0120CD20CBC00010D75F00AEF84AFF08F
:100139008C828D838EF0EF020CD2C0E0C0F0C0D06B
:1001490075D00874035544FF43B0F08527F0E544A2
:1001590084AEF0BE0400501AEF2449F987A08FF04D
:1001690005F07401800225E0D5F0FBC454F0F4FFDA
:1001790052B00544D0D0D0F0D0E032C0E0C0D07544
:10018900D008AF50AE51AD4EAC4FEF240550027FB1
:1001990064EE240550027E64ED540F600280030F63
:1001A90080027F00EC540F600280030E80027E0003
:1001B9008F508E51ED2DFDA2B1E4334DF54EEC2C4F
:1001C900FCA2B0E4334CF54F0521D0D0D0E0327514
:1001D9008A47758CFFC28DD28CD2A9D2AF22758B7A
:1001E900D5758DDBC28FD28ED2ABD2AF22E582FF1D
:1001F9002450F9E7FE2469500A75821E1200CD7554
:10020900820222EF2450F9E7600A75823C1200CD80
:100219007582012275820022AF82300212900D642C
:10022900E493FE8E45900D64E493FE8E468011EFB3
:10023900900D5A93FF8F45E511900D5A93FF8F4604
:10024900300312900D64E493FF8F47900D64E4939B
:10025900FF8F488012E512900D5A93FF8F47E513DF
:10026900900D5A93FF8F4830010C747F5546F5461F
:10027900747F5547F54722439303439403439160A1
:1002890043926043B10443B2047591087592001218
:100299000AE490003475F0401208D91201D812010D
:1002A900E77582641200CD0523E4B52302052443D2
:1002B900C110E523540370657582051200A1AE8251
:1002C900E583C423CEC423541F6ECE541FCE6ECEF5
:1002D9008E277582061200A1E5835403A2E0C58228
:1002E90013C58213A2E0C58213C58213C582F583A3
:1002F900751102751204120CA9AE82AF83744CC336
:100309009EFEE49FFFE534FC3395E0FDEC2EF525D8
:10031900ED3FF52674FC2527400375270490002C32
:1003290075F040120A2F1200DC74FFB5291BB52A9B
:1003390018E5356058E53BB53653E53CB5374E759C
:100349002914752A0005288044E529452A700FE5F6
:100359003BB5360280377529FF752AFF802F7582D4
:10036900001201F6E582700A7582011201F6E58232
:10037900600AE4F529F52A15280202AA152974FF4D
:10038900B52902152AE529452A7002152874FFB5F1
:100399002B3CE538604AE53C7046E53D7042AF3993
:1003A900AE3AC3EE9F400BAD3BC3ED9F4004EE9DBB
:1003B9005015AF39AE3AC3EE9F5025AD3BC3ED9F03
:1003C9005005C3EE9D4019752B0105288012E52BB8
:1003D9007009E53C600A752BFF8005D52B021528AD
:1003E900E528B40100920492B3C201E54D24F1500D
:1003F900030206CFE54D240B83F582E54D241383D3
:10040900F583E4737CA62B54D00C4882B6EACF1C42
:100419004F6F950404040404050505050506060641
:100429000606D201B2027582011201F6E582600662
:10043900853B82120B287582001201F6E582700352
:10044900020720C202754D03020720D201B20375CB
:1004590082011201F6E5826006853C82120B427523
:1004690082001201F6E5827003020720C203054DDE
:10047900020720B2027582011201F6E58260099035
:10048900002C75F040120B657582001201F6E582A9
:100499007003020720C202754D01020720B20375DD
:1004A90082011201F6E582600990002C75F0401274
:1004B9000BB27582001201F6E5827003020720C2B1
:1004C90003754D0C020720D201B202758201120197
:1004D900F6E5826019E53604FF8F36BF1800400340
:1004E9007536007535017529FF752AFFD2007582A9
:1004F900001201F6E5827003020720C202754D055C
:10050900020720D201B2037582011201F6E5826069
:1005190019E53704FF8F37BF3C0040037537007575
:1005290035017529FF752AFFD2007582001201F67F
:10053900E5827003020720C203754D06020720D227
:1005490001B202B2037582011201F6E5826014E577
:1005590035B401009204E433FF8F357529FF752AFC
:10056900FFD2007582001201F6E5827003020720AE
:10057900C202C203054D020720B2027582011201AF
:10058900F6E5826013E53904FF8F39BF180040038F
:10059900753900753801D2007582001201F6E582BD
:1005A9007003020720C202754D08020720B20375C5
:1005B90082011201F6E5826013E53A04FF8F3ABF22
:1005C90018004003753A00753801D200758200128F
:1005D90001F6E5827003020720C203754D0902077F
:1005E90020B202B2037582011201F6E582600EE5BE
:1005F90038B401009204E433FF8F38D200758200C9
:100609001201F6E5827003020720C202C203054DFA
:100619000207207582001201F6E5826016AF340FD9
:100629008F34C374858FF063F08095F0500375346F
:10063900FBD2007582011201F6E5827003020720E0
:10064900754D0C0207207582001201F6E5826003E0
:10065900754D007582011201F6E5827003020720CB
:10066900754D0D0207207582001201F6E5826009B9
:1006790090002C75F040120BFF7582011201F6E50E
:10068900827003020720754D0E02072075110A7545
:100699001200852382852483120CEDAE82AF83C3B9
:1006A900EE9404EF94005002D2017582001201F613
:1006B900E5826003120B5C7582011201F6E5826026
:1006C90056754D0A805175110A7512008523828568
:1006D9002483120CEDAE82AF83C3EE9404EF940031
:1006E9005002D2017582001201F6AF82BF020E7567
:1006F90082011201F6AF82BF0203120B0475820058
:100709001201F6E5826003754D027582011201F648
:10071900E5826003754D0BE54D24F1500302089EF7
:10072900E54D240B83F582E54D241383F583E473AA
:100739009A9A5757C7C7C7000000574F9A39840775
:100749000707070707070808080708070808853B78
:100759008275113E751200751340120116853E828D
:10076900853F11782DE6C45407FF782DE6540FFE16
:100779008F128E13120221740AB54D0280030208EA
:100789009EE535700302089E747F5548F5480208B6
:100799009E7830E6C45401F5827830E6540FFF782C
:1007A9002FE6C45403FE782FE6540FFD8F118E12E5
:1007B9008D13120221747F5546F54602089E85362F
:1007C9008275113E751200751340120116853E821D
:1007D900853F1175F00AE53784F51275F00AE5379A
:1007E9008485F013120221E535700302089E747F97
:1007F9005548F54802089E85398275113E751200E3
:10080900751340120116853A8275114175120075EA
:100819001340120116853E82853F1185411285429A
:1008290013120221E538606D747F5548F5488065DB
:100839007831E65407FF75110B8F1275130B75820A
:100849000A120221804F852582120C8FAF828525DD
:1008590082C007120C9EAE82D007E526339204406F
:10086900047D0A80027D0B8E1175120C8D138F8207
:10087900120221747F5547F547801A782CE6C45433
:1008890007FF782CE6540FFE75110A8F128E137527
:10089900820A12022174C05547FF74385547C42390
:1008A900541F420774075547C40354F8FE42078F83
:1008B9004785454985464A8F4B85484C20000302A8
:1008C90002AA90003475F040120995C2000202AAEA
:0D0D5A00C0F9A4B0999282F88090FFBFC646
:1008D900AD82AE83AFF0758220C007C006C0051295
:1008E9000A1CAC82D005D006D007BCA51975822197
:1008F900C007C006C005120A1CAC82D005D006D0BC
:1009090007BC5A0280437510A5758220C007C0062E
:10091900C005120A8575105A758221120A85D005FB
:10092900D006D0077C0074022C4420F58275100093
:10093900C007C006C005C004120A85D004D005D07E
:1009490006D0070CBC070040DD7C00EC2DF9E43E25
:10095900FA8F0374022C4420F582C007C006C00533
:10096900C004C003C002C001120A1CA882D001D071
:1009790002D003D004D005D006D00789828A838BA0
:10098900F0E8120CD20CBC070040C022AD82AE8345
:10099900AFF07C0074022C4420FBEC2DF8E43EF906
:1009A9008F02888289838AF0120D3AF5108B82C0F2
:1009B90007C006C005C004120A85D004D005D006B8
:1009C900D0070CBC070040CC22AF827E000000EFAC
:1009D9001392059281D2B20000C2B2EFC313FF0E87
:1009E900BE080040E822AF82C280C2B2D2808F82A4
:1009F9000209D27F007E017D000000308103EE42B2
:100A090007D2B20000C2B2EE2EFE0DBD080040E9C9
:100A19008F8222E5822582FF74814FF5821209EFC8
:100A29001209FCC28022AD82AE83AFF07582BFC0CD
:100A390007C006C0051209EFD005D006D0077C0013
:100A4900EC2DF9E43EFA8F03C007C006C005C004C7
:100A5900C003C002C0011209FCA882D001D002D093
:100A690003D004D005D006D00789828A838BF0E8A9
:100A7900120CD20CBC080040C7C28022E582258234
:100A8900FF74804FF5821209EF8510821209D2C2D4
:100A99008022AD82AE83AFF07582BEC007C006C0AA
:100AA900051209EFD005D006D0077C00EC2DF9E43A
:100AB9003EFA8F0389828A838BF0120D3AF582C040
:100AC90007C006C005C0041209D2D004D005D0065B
:100AD900D0070CBC080040D4C28022758200120ADB
:100AE9001CAF82751000758207C007120A85D007EE
:100AF900747F5FF510758200020A85751000758292
:100B090001120A85751087758202120A857510010E
:100B1900758204120A85751001758203020A85AF70
:100B290082BF170050030F80027F008F82120C7959
:100B3900858210758202020A85AF82BF3B0050038D
:100B49000F80027F018F82120C79858210758201D4
:100B5900020A85751000758200020A85AD82AE838E
:100B6900AFF074042DFAE43EFB8F048A828B838CE8
:100B7900F0120D3AC4540175F00AA4FA74042DFD5B
:100B8900E43EFE8D828E838FF0120D3A540FFD2ABA
:100B9900FFBF0C0050030F80027F018F82120C7976
:100BA900858210758204020A85AD82AE83AFF07426
:100BB900032DFAE43EFB8F048A828B838CF0120D9D
:100BC9003AC4540375F00AA4FA74032DFDE43EFEF9
:100BD9008D828E838FF0120D3A540FFD2AFFBF1FAD
:100BE9000050030F80027F018F82120C79858210D9
:100BF900758203020A85AD82AE83AFF074052DFDBF
:100C0900E43EFE8D828E838FF0120D3A5407FCC3A9
:100C19006480948750308D028E038F048A828B837F
:100C29008CF0120D3A5407F9098A828B838CF0E90A
:100C39005407C0F0C0E0120D3AD0F054F845F0D096
:100C4900F0120CD280168D028E038F048A828B8358
:100C59008CF0120D3A54F84401120CD28D828E8315
:100C69008FF0120D3A5407FD8D10758205020A8521
:100C7900AF8275F00AEF84C454F0FE75F00AEF8470
:100C8900E5F04EF58222AF8275F00AEF8475F00A1D
:100C99008485F08222AF8275F00AEF8485F0822282
:100CA9007A10E4FBFCE58225E0F582E58333F583E0
:100CB900EB33FBEC33FCEB9511F5F0EC95124006A8
:090CC900FCABF0438201DADD22EC
:06005000E478FFF6D8FD84
:10002E007900E94400601B7A00900D67780175A095
:10003E0000E493F2A308B8000205A0D9F4DAF27531
:02004E00A0FF11
:100CD20020F71130F6138883A88220F509F6A8833D
:100CE2007583002280FEF280F5F022E51145126044
:100CF200467A01E51125E0F511E512334012F512AD
:100D0200E5829511E583951240030A80E6C3E51258
:100D120013F512E51113F511C3E5829511F5F0E50E
:100D22008395124005F58385F082C3E51213F5120F
:080D3200E51113F511DAE122CD
:100056007800E84400600A790175A000E4F309D845
:10006600FC7800E84400600C7900900001E4F0A3FD
:04007600D8FCD9FADF
:0D002100758151120D56E582600302001E2C
:100D3A0020F71430F6148883A88220F507E6A883E2
:100D4A0075830022E280F7E49322E0227582002272
:00000001FF
